:04000000D2EF01F04A
:0600080001EF04F01200FC
:1000180002EF04F012000E6A01C012F002C013F0E1
:1000280003C014F004C015F0050E096ED890043210
:10003800033202320132092EF9D7050ED890013663
:10004800023603360436E82EF9D7200E0126000EB4
:100058000222032204221250015C0D6E3CD03FD8CC
:1000680019D007C0D9FF08C0DAFFDF500FC0F6FF6C
:1000780010C0F7FF11C0F8FFF56E0C00074A082AF8
:100088000F2A000E102211220506D8A006060550D8
:10009800061003E00D060D28E4E10FC00AF010C0B9
:1000A8000BF011C00CF01BD8A68EA69CA684F2AE4D
:1000B80003D0F29E010E0E6E19D8A6940E5002E0DF
:1000C800F28E0E6A200E0D6E0A50126E0B50136ED1
:1000D8000C50146E156A05500610C1E1120012C0CA
:1000E8000FF013C010F014C011F01200550EA76ED7
:1000F800AA0EA76EA682AA0C1FEC02F0176A080EB9
:10010800186E196A1A6A1B6E1C6A42EC02F0166EA7
:1001180031D08FEC01F0F9D7165030EC02F04D0ECB
:100128000CD0165030EC02F0F0D7165030EC02F03C
:10013800ECD7165030EC02F00C0EAF6EE6D7165026
:1001480030EC02F0E2D7800E2A6E1D6AD7D72A500B
:1001580030EC02F01D5030EC02F0D7D7B1EC01F0D2
:10016800D4D7D9EC00F0D1D7F0EC01F0CED767ECBA
:1001780001F0CBD71650C9E0410ACBE0110AE3E001
:10018800200AE5E0D70AEAE0170AC6E0010AC9E052
:10019800030ACBE0010ACDE0070AD1E0410AE1E019
:1001A8000E0AE2E0040AE3E0B0D71F0E016E026A0D
:1001B800046A0B0E036E08EC02F0DF0E1F18D8A4B9
:1001C80012002028D8A412002150D8A41200070E2B
:1001D8002218D8A41200600E2318D8A412002450A4
:1001E800D8A412002504D8A41200140E2618D8A4E6
:1001F8001200460E2718D8A412004D0E2818D8A4AD
:100208001200520E2918D8A41200800E2A6E0C0E65
:100218001D6E0C0C036EAC6AAB6A03B0AC8803A20B
:1002280002D0AC8CAB8C03B4AC8E03A602D0AB88E6
:1002380001D0AB8A03B8AC849E9803BAAB8603ACF2
:1002480002D09D8A01D09D9A9E9A03AE02D09D88C5
:1002580001D09D9801C0AFFF02C0B0FFAC8AAB8E41
:10026800949C948EACB8ACBE1200948C120001C061
:1002780009F002C00AF003C00BF004C00CF0F8CF7C
:100288000FF0F7CF0EF0F6CF0DF00BC0F8FF0AC055
:10029800F7FF09C0F6FF09D0090007C0D9FF08C059
:1002A800DAFFF5CFDFFF074A082A0506D8A00606B9
:1002B8000528F2E10628F0E10FC0F8FF0EC0F7FFAD
:1002C8000DC0F6FF120042EC02F042EC02F01A50A8
:1002D800016E1B50026E1C50036E046A010E066EFE
:1002E800056A000E076E010E086E3BEC01F0D8900F
:1002F8001B2A000E1C22116A126A000E1124D96EE4
:10030800010E1220DA6EDF5030EC02F0114A122A88
:100318001204F3E3120042EC02F042EC02F0000E89
:10032800016E010E026E010E046E036A08EC02F003
:100338001750016E1850026E1950036E046A010EB0
:10034800066E056A000E076E010E086E0FEC00F0CF
:10035800D890182A000E1922000C42EC02F0D00A9C
:1003680001E01200016A080E026E036A01C0F6FF7E
:1003780002C0F7FF03C0F8FFA68EA69CA684A68835
:100388007AEC00F0400E0126000E022203220350F0
:1003980004E101287F0E0258E9E3120001EE00F0A3
:1003A80011EE00F0EE6AE550E150FCE1E250FAE1AE
:1003B80000EE17F0130EEE6AE806FDE18C0EF66EFD
:1003C800040EF76E000EF86E0900F5CF2AF0000E45
:1003D800F86E000180EF00F0560E30EC02F0450E8A
:1003E80030EC02F0520E30EC02F02E0E30EC02F03F
:1003F800310E30EC02F02E0E30EC02F0300E30EC04
:1004080002F0300E30EF02F0056A066A0ED09EAA9E
:10041800FED7AECF07F001C0D9FF02C0DAFF07C090
:10042800DFFF014A022A054A062A0350055C0450E8
:100438000658EDE312009B6A700ED36E0F0EC112C0
:10044800450ECD6E026A4D0E016E2C0E0EEC01F0BB
:100458009268936894681200026EACA2FED70250AC
:1004680039EC02F0ACB21200FDD7016EACAC03D08F
:10047800AC901EB2AC8001C0ADFF12009EAAFED7A0
:06048800AE5012008000DE
:020000040020DA
:08000000FFFFFFFFFFFFFFFF00
:020000040030CA
:0E000000210E3F1EFF8181FF0FC00FE00F4059
:00000001FF
