:04000000CDEF01F04F
:0600080001EF04F01200FC
:1000180002EF04F012000E6A01C012F002C013F0E1
:1000280003C014F004C015F0060E096ED89004320F
:10003800033202320132092EF9D7060ED890013662
:10004800023603360436E82EF9D7400E0126000E94
:100058000222032204221250015C0D6E3CD03FD8CC
:1000680019D007C0D9FF08C0DAFFDF500FC0F6FF6C
:1000780010C0F7FF11C0F8FFF56E0C00074A082AF8
:100088000F2A000E102211220506D8A006060550D8
:10009800061003E00D060D28E4E10FC00AF010C0B9
:1000A8000BF011C00CF01BD8A68EA69CA684F2AE4D
:1000B80003D0F29E010E0E6E19D8A6940E5002E0DF
:1000C800F28E0E6A400E0D6E0A50126E0B50136EB1
:1000D8000C50146E156A05500610C1E1120012C0CA
:1000E8000FF013C010F014C011F01200550EA76ED7
:1000F800AA0EA76EA682AA0C1AEC02F0176A080EBE
:10010800186E196A1A6A1B6E1C6A3AEC02F0166EAF
:1001180031D08AEC01F0F9D7165034EC02F04D0ECC
:100128000CD0165034EC02F0F0D7165034EC02F034
:10013800ECD7165034EC02F00C0EAF6EE6D7165022
:1001480034EC02F0E2D7800E2A6E1D6AD7D72A5007
:1001580034EC02F01D5034EC02F0D7D7ACEC01F0CF
:10016800D4D7D9EC00F0D1D7EBEC01F0CED73AECEC
:1001780001F0CBD71650C9E0410ACBE0110AE3E001
:10018800200AE5E0D70AEAE0170AC6E0010AC9E052
:10019800030ACBE0010ACDE0070AD1E0410AE1E019
:1001A8000E0AE2E0040AE3E0B0D71F0E016E026A0D
:1001B800046A0B0E036E03EC02F0DF0E1F18D8A4BE
:1001C80012002028D8A412002150D8A41200070E2B
:1001D8002218D8A41200600E2318D8A412002450A4
:1001E800D8A412002504D8A41200140E2618D8A4E6
:1001F8001200460E2718D8A412004D0E2818D8A4AD
:100208001200520E2918D8A41200800E2A6E0C0E65
:100218001D6E0C0C01C009F002C00AF003C00BF0FF
:1002280004C00CF0F8CF0FF0F7CF0EF0F6CF0DF0BA
:100238000BC0F8FF0AC0F7FF09C0F6FF09D0090094
:1002480007C0D9FF08C0DAFFF5CFDFFF074A082A41
:100258000506D8A006060528F2E10628F0E10FC039
:10026800F8FF0EC0F7FF0DC0F6FF12003AEC02F0DF
:100278003AEC02F01A50016E1B50026E1C50036ECD
:10028800046A010E066E056A000E076E010E086EFE
:100298000EEC01F0D8901B2A000E1C22116A126A7B
:1002A800000E1124D96E010E1220DA6EDF5034ECE4
:1002B80002F0114A122A1204F3E31200036E726A62
:1002C800716A03B0728803A202D0728C718C03B475
:1002D800728E03A602D0718801D0718A03A802D059
:1002E800728401D0729403BA718603AC02D0A38AD7
:1002F80001D0A39A03AE02D0A38801D0A39801C06D
:1003080075FF02C076FF728A718E12003AEC02F015
:100318003AEC02F0000E016E010E026E010E046E40
:10032800036A03EC02F01750016E1850026E195060
:10033800036E046A010E066E056A000E076E010E52
:10034800086E0FEC00F0D890182A000E1922000C45
:100358003AEC02F0D00A01E01200016A080E026EBF
:10036800036A01C0F6FF02C0F7FF03C0F8FFA68EBC
:10037800A69CA684A6887AEC00F0400E0126000E02
:1003880002220322035004E101287F0E0258E9E308
:10039800120001EE00F011EE00F0EE6AE550E150B7
:1003A800FCE1E250FAE100EE17F0130EEE6AE806FF
:1003B800FDE17C0EF66E040EF76E000EF86E090075
:1003C800F5CF2AF0000EF86E000180EF00F0560E0F
:1003D80034EC02F0450E34EC02F0520E34EC02F02C
:1003E8002E0E34EC02F0310E34EC02F02E0E34EC0A
:1003F80002F0300E34EC02F0300E34EF02F0056AF1
:10040800066A0ED0A4AAFED7AECF07F001C0D9FF66
:1004180002C0DAFF07C0DFFF014A022A054A062A9E
:100428000350055C04500658EDE312009B6A700EF9
:10043800D36E0F0EC112450ECD6E026A4D0E016EBF
:100448002C0E62EC01F09268936894681200016EB9
:1004580072AC03D072901EB2728001C073FF12009A
:10046800026E72A2FED702502BEF02F0A4AAFED7AA
:06047800AE5012008000EE
:020000040020DA
:08000000FFFFFFFFFFFFFFFF00
:020000040030CA
:0E000000FF381E3CFFB981FF0FC00FE00F401C
:00000001FF
